S00C0000746573742E7372656358
S1130000971100209381018017810020130181FF43
S11300109702000093828206739052301386C18740
S11300209387C188637AF6003386C740930500003E
S11300301385C187EF00001437050020130605005F
S11300409387C187637CF600B71500003386C740E9
S11300509385C56E13050500EF00800FEF000027A0
S1130060B705002013060000938505001305500012
S1130070EF00801CEF0080216F000000B70700F044
S113008023A2A70223A4B70267800000130101EC96
S1130090130341122322B1122324C1122326D112A5
S11300A013060500930603009305001013050101D0
S11300B0232E1110232C81102328E112232AF1125C
S11300C0232C0113232E111323266100EF00C033C8
S11300D01304050013050101EF0080018320C11101
S11300E01305040003248111130101146780000027
S11300F0630E0502130101FF23248100232611004E
S11301001304050003450500630A050013041400E5
S1130110EF00000203450400E31A05FE8320C1003A
S1130120032481001301010167800000678000003F
S11301301375F50FB70700F023A0A702370700F0E7
S11301408327C70293F70701E38C07FE678000004B
S113015013030500630E0600838305002300730068
S11301601306F6FF1303130093851500E31606FE2A
S11301706780000013030500630A06002300B30030
S11301801306F6FF13031300E31A06FE678000004C
S1130190630C06021303050093061000636AB5009E
S11301A09306F0FF1307F6FF3303E300B385E5007E
S11301B083830500230073001306F6FF3303D30083
S11301C0B385D500E31606FE678000006F000000CB
S11301D003A7C187B78700209387070093060040D1
S11301E0B387D740630C07003305A70063E2A70277
S11301F023AEA1861305070067800000938601895A
S11302001387018923AED1863305A700E3F2A7FE45
S1130210130101FF23261100EF1040388320C10091
S11302209307C0002320F5001307F0FF1305070010
S11302301301010167800000B7676C6C130101FEB4
S1130240938787542324F100930500009307F00655
S11302501305101B232E11002316F100EFF01FE2EB
S113026093068100371500001307F00F13063000C2
S11302709385060013050564EFF05FE18320C10157
S1130280130500001301010267800000130101FF40
S11302902324810023261100930700001304050082
S11302A0638807009305000097000000E700000042
S11302B0B717000003A5876E8327850263840700B0
S11302C0E780070013050400EFF05FF0130101FF5E
S11302D0232481002322910037140000B714000066
S11302E09387C46E1304C46E3304F44023202101A5
S11302F023261100135424409384C46E1309000070
S113030063108904B7140000371400009387C46E87
S11303101304C46E3304F440135424409384C46E11
S113032013090000631889028320C100032481009B
S113033083244100032901001301010167800000A7
S113034083A704001309190093844400E78007007D
S11303506FF01FFB83A70400130919009384440062
S1130360E78007006FF01FFC130101F8232C8106BE
S1130370232A9106232E110623282107930405001E
S113038013040600635406029307B0082320F50003
S11303901305F0FF8320C107032481078324410749
S11303A003290107130101086780000093078020D7
S11303B0231AF1002324B100232CB1001386060074
S11303C09307000093060700630404009307F4FFF7
S11303D01309F0FF93058100138504002328F1001D
S11303E0232EF100231B2101EF0000366356250163
S11303F09307B00823A0F400E30E04F883278100D8
S1130400238007006FF01FF9138706009306060088
S1130410138605009305050003A581876FF0DFF4BB
S1130420130101FE2328210103A98500232C810047
S1130430232631012322510123206101232E11009F
S1130440232A91002324410183AA05001384050073
S1130450130B06009389060063EC26098397C500F5
S113046013F7074863040708032744019304300083
S113047083A50501B384E40213072000B38ABA40BC
S1130480130A0500B3C4E4021387160033075701A7
S113049063F4E4009304070093F707406386070AB4
S11304A09385040013050A00EF00104C130905009E
S11304B0630C050A8325040113860A00EFF05FC963
S11304C08357C40093F7F7B793E707082316F4009C
S11304D023282401232A940033095901B384544165
S11304E023202401232494001389090063F429019F
S11304F013890900032504001306090093050B0062
S1130500EFF01FC98327840013050000B387274138
S11305102324F40083270400B38727012320F40055
S11305208320C101032481018324410103290101A2
S11305308329C100032A8100832A4100032B01007F
S113054013010102678000001386040013050A00EA
S1130550EF00105613090500E31C05F6832504017A
S113056013050A00EF00D0309307C0002320FA00DF
S11305708357C4001305F0FF93E707042316F40020
S11305806FF01FFA83278600130101FD232E31012A
S113059023286101232611022324810223229102AC
S11305A023202103232C4101232A510123267101F5
S11305B023248101232291012320A101032B06007E
S11305C09309060063940712130500008320C102F7
S11305D00324810223A20900832441020329010286
S11305E08329C101032A8101832A4101032B0101CB
S11305F0832BC100032C8100832C4100032D0100B7
S11306001301010367800000832B0B00032D4B00B3
S1130610130B8B0003298400832A0400E3060DFED8
S113062063642D098317C40013F70748630E070694
S11306308324440183250401B3049C02B38ABA4091
S113064013871A003307A701B3C4940363F4E400C7
S11306509304070093F707406388070A938504000F
S113066013050A00EF00503013090500630E050A54
S11306708325040113860A00EFF09FAD8357C4005D
S113068093F7F7B793E707082316F4002328240108
S1130690232A940033095901B384544123202401AB
S11306A02324940013090D0063742D0113090D0014
S11306B0032504001306090093850B00EFF05FADDA
S11306C083278400B38727412324F400832704006D
S11306D0B38727012320F40083A78900B387A741A8
S11306E023A4F900E39207F26FF01FEE130A05004A
S11306F013840500930B0000130D0000130C30004D
S1130700930C20006FF01FF11386040013050A00F8
S1130710EF00103A13090500E31A05F683250401D6
S113072013050A00EF00D0149307C0002320FA0039
S11307308357C4001305F0FF93E707042316F4005E
S113074023A409006FF09FE883D7C500130101F5C6
S11307502324810A2322910A2320210B232C4109DB
S11307602326110A232E3109232A5109232861093A
S11307702326710923248109232291092320A10915
S1130780232EB10793F70708130A05001389050000
S113079093040600138406006388070683A70501F3
S11307A06394070693050004EF00101C2320A9009E
S11307B02328A900631605049307C0002320FA0028
S11307C01305F0FF8320C10A0324810A8324410A0C
S11307D00329010A8329C109032A8109832A4109BA
S11307E0032B0109832BC108032C8108832C4108A6
S11307F0032D0108832DC1071301010B678000003D
S113080093070004232AF90093070002A304F102CA
S113081093070003232201022305F102232681000A
S1130820930C5002371B0000B71B0000371D00005B
S1130830930A0000138404008347040063840700C0
S1130840639C970DB30D94406306940293860D0048
S1130850138604009305090013050A00EFF05FBC3A
S11308609307F0FF6304F52483274102B387B7019C
S11308702322F10283470400638A07229307F0FFCF
S11308809304140023280100232E0100232AF100DD
S1130890232C0100A309010423240106930D100055
S11308A083C504001306500013054B65EF00007A5E
S11308B083270101138414006314050613F7070149
S11308C06306070013070002A309E10413F7870076
S11308D0630607001307B002A309E10483C60400FA
S11308E01307A002638CE6048327C1011384040068
S11308F093060000130690001305A00003470400AC
S113090093051400130707FD637EE6086384060459
S1130910232EF1006F000004130414006FF0DFF1C4
S113092013074B653305E5403395AD00B3E7A700E6
S11309302328F100930404006FF09FF60327C100FD
S113094093064700032707002326D10063420704C8
S1130950232EE100034704009307E0026314F70821
S1130960034714009307A0026318F7048327C10008
S1130970130424001387470083A707002326E100FC
S113098063D407009307F0FF232AF1006F0080056A
S11309903307E04093E72700232EE1002328F100EA
S11309A06FF05FFBB387A702138405009306100062
S11309B0B387E7006FF09FF413041400232A0100A7
S11309C09306000093070000130690001305A0008F
S11309D00347040093051400130707FD6372E60838
S11309E0E39406FA83450400130630001385CB65AF
S11309F0EF00C065630205029387CB653305F540BC
S1130A0083270101130700043317A700B3E7E700A6
S1130A10130414002328F100834504001306600026
S1130A2013050D66930414002304B102EF00006261
S1130A306308050863980A04032701018327C1009A
S1130A401377071063080702938747002326F100F2
S1130A5083274102B38737012322F1026FF09FDD20
S1130A60B387A7021384050093061000B387E70039
S1130A706FF01FF69387770093F787FF93878700BC
S1130A806FF0DFFC1307C100930600421306090050
S1130A909305010113050A0097000000E700000018
S1130AA09307F0FF93090500E314F5FA8357C9008F
S1130AB093F70704E39607D0032541026FF09FD014
S1130AC01307C100930600421306090093050101B0
S1130AD013050A00EF00801B6FF09FFC130101FD5A
S1130AE0232A510183A70501930A070003A7850060
S1130AF02324810223202103232E3101232C4101AD
S1130B002326110223229102232861012326710145
S1130B10930905001384050013090600138A0600CF
S1130B2063D4E700930707002320F9000347340444
S1130B3063060700938717002320F9008327040026
S1130B4093F7070263880700832709009387270028
S1130B502320F9008324040093F46400639E0400BA
S1130B60130B9401930BF0FF8327C40003270900A0
S1130B70B387E74063C2F40883473404B336F00014
S1130B808327040093F707026390070C13063404C9
S1130B9093050A0013850900E7800A009307F0FF14
S1130BA06308F5068327040013074000930400003C
S1130BB093F76700639CE7008324C400832709003C
S1130BC0B384F44063D404009304000083278400B6
S1130BD0032704016356F700B387E740B384F400A6
S1130BE0130900001304A401130BF0FF63902409FC
S1130BF0130500006F0000029306100013060B009B
S1130C0093050A0013850900E7800A00631A750337
S1130C101305F0FF8320C1020324810283244102CF
S1130C20032901028329C101032A8101832A410185
S1130C30032B0101832BC100130101036780000012
S1130C40938414006FF05FF23307D400130600039B
S1130C50A301C7040347540493871600B307F400A1
S1130C6093862600A381E7046FF05FF293061000D9
S1130C701306040093050A0013850900E7800A009F
S1130C80E30865F9130919006FF05FF6130101FD1C
S1130C90232481022322910223202103232E3101C4
S1130CA023261102232C4101232A51012328610107
S1130CB083C8850193078007930405001384050006
S1130CC0130906009389060063EE170193072006B3
S1130CD09386350463EE1701638A082A9307800517
S1130CE0638AF820930A2404230114056F00400446
S1130CF09387D8F993F7F70F13065001E364F6FED0
S1130D00371600009397270013060669B387C700B8
S1130D1083A707006780070083270700938A2504B9
S1130D209386470083A707002320D7002381F50477
S1130D30930710006F00402903A6050083270700CE
S1130D401375060893854700630E050483A70700FF
S1130D502320B70037170000832544001308876653
S1130D6063D2071E1307D002A301E4042324B400B2
S1130D7063D80504B307F0401307A000938A060064
S1130D8033F6E702938AFAFF3306C80003460600E7
S1130D902380CA0013860700B3D7E702E372E6FE96
S1130DA06F00800983A70700137506042320B7008A
S1130DB0E30205FA9397070193D707416FF09FF970
S1130DC01376B6FF2320C4006FF0DFFA03A60500F4
S1130DD083270700137506089385470063080500F9
S1130DE02320B70083A707006F0040011376060491
S1130DF02320B700E30806FE83D707003718000056
S1130E001307F00613088866639AE8121307800034
S1130E10A3010404032644002324C400E34006F68B
S1130E208325040093F5B5FF2320B400E39807F469
S1130E30938A0600E31406F4930780006314F70210
S1130E408327040093F71700638E070003274400E9
S1130E508327040163C8E70093070003A38FFAFE06
S1130E60938AFAFFB38656412328D40013870900D6
S1130E70930609001306C1009305040013850400BA
S1130E80EFF0DFC5130AF0FF631645151305F0FFF5
S1130E908320C10203248102832441020329010225
S1130EA08329C101032A8101832A4101032B010102
S1130EB0130101036780000083A7050093E707027D
S1130EC023A0F50037180000930880071308C867AB
S1130ED003260400A30214058327070013750608DC
S1130EE093854700630E05002320B70083A70700FE
S1130EF06F00000237180000130888666FF05FFD6A
S1130F00137506042320B700E30205FE83D7070008
S1130F101377160063060700136606022320C40035
S1130F2063860700130700016FF09FEE0327040098
S1130F301377F7FD2320E4006FF0DFFE1307A00012
S1130F406FF01FED130887661307A0006FF09FEC86
S1130F5003A605008327070083A545011378060827
S1130F6013854700630A08002320A70083A707000E
S1130F7023A0B7006F0080012320A7001376060486
S1130F8083A70700E30606FE2390B7002328040086
S1130F90938A06006FF09FED8327070003A64500A0
S1130FA093050000938647002320D70083AA0700F7
S1130FB013850A00EF0080096306050033055541D7
S1130FC02322A400832744002328F400A30104045B
S1130FD06FF0DFE98326040113860A0093050900F4
S1130FE013850400E7800900E30245EB832704002E
S1130FF093F72700639407048327C1000325C400E3
S1131000E358F5E8138507006FF09FE89306100096
S113101013860A009305090013850400E78009007C
S1131020E30665E7130A1A008327C4000327C100F7
S1131030B387E740E34CFAFC6FF01FFC130A00008F
S1131040930A9401130BF0FF6FF01FFE93F5F50F55
S11310503306C5006316C500130500006780000051
S113106083470500E38CB7FE130515006FF09FFE60
S1131070638A050E83A7C5FF130101FE232C81009B
S1131080232E11001384C5FF63D407003304F40036
S11310902326A100EF00803383A741880325C100E4
S11310A0639E07002322040023A281880324810174
S11310B08320C101130101026F0080316374F402C3
S11310C003260400B306C400639AD70083A607006E
S11310D083A74700B386C6002320D4002322F4004C
S11310E06FF09FFC1387070083A747006384070002
S11310F0E37AF4FE832607003306D70063188602DA
S113110003260400B386C6002320D7003306D70085
S1131110E39EC7F803A6070083A74700B306D600DB
S11311202320D7002322F7006FF05FF86378C40010
S11311309307C0002320F5006FF05FF70326040037
S1131140B306C400639AD70083A6070083A74700A9
S1131150B386C6002320D4002322F4002322870070
S11311606FF0DFF467800000130101FE232A910071
S11311709384350093F4C4FF23282101232E110006
S1131180232C810023263101938484009307C0001B
S11311901309050063F0F4069304C00063EEB4047D
S11311A013050900EF00802203A7418813040700F8
S11311B06318040683A70188639A07009305000057
S11311C013050900EF00001C23A0A18893850400E7
S11311D013050900EF00001B9309F0FF631A350B98
S11311E09307C0002320F90013050900EF00401EF7
S11311F06F000001E3D404FA9307C0002320F90030
S1131200130500008320C1010324810183244101CB
S1131210032901018329C100130101026780000031
S113122083270400B387974063CE07041306B000F6
S1131230637AF6002320F4003304F400232094009E
S11312406F00000183274400631A870223A2F188F8
S113125013050900EF00C0171305B40093074400F9
S1131260137585FF3307F540E30EF5F83304E40006
S1131270B387A7402320F4006FF0DFF82322F700A0
S11312806FF01FFD13070400032444006FF05FF2A6
S1131290130435001374C4FFE30285FAB305A440B4
S11312A013050900EF00000EE31A35F96FF05FF340
S11312B0130101FE232C8100232E1100232A910007
S11312C0232821012326310123244101130406008C
S11312D063940502032481018320C1018324410115
S11312E0032901018329C100032A81009305060013
S11312F0130101026FF05FE763180602EFF05FD796
S1131300930400008320C101032481010329010106
S11313108329C100032A8100138504008324410129
S11313201301010267800000130A0500938405007D
S1131330EF00400A13090500636685009357150002
S1131340E3E287FC9305040013050A00EFF0DFE1F4
S113135093090500E30605FA130604006374890083
S1131360130609009385040013850900EFE05FDE8E
S11313709385040013050A00EFF09FCF93840900BE
S11313806FF05FF8130101FF2324810023229100F1
S113139013040500138505002326110023A40188E6
S11313A0EFE01FE39307F0FF6318F50083A781883C
S11313B0638407002320F4008320C10003248100F8
S11313C0832441001301010167800000678000004D
S11313D06780000083A7C5FF1385C7FF63D8070094
S11313E0B385A50083A705003305F50067800000D9
S11313F0130101FF232481001384050083A5050044
S11314002322910023261100930405006384050020
S1131410EFF01FFE93050400032481008320C10024
S11314201385040083244100130101016FF05FC49C
S113143083A781876382A71683274502130101FED0
S1131440232C8100232E1100232A9100232821011B
S11314502326310113040500638A070483A7C70008
S1131460638C0702930400001309000883274402D5
S113147083A7C700B387970083A507006396050E6B
S113148093844400E39424FF832744021305040057
S113149083A5C700EFF0DFBD8327440283A50700BF
S11314A06386050013050400EFF09FBC8325440107
S11314B06386050013050400EFF09FBB83254402F7
S11314C06386050013050400EFF09FBA83258403A7
S11314D06386050013050400EFF09FB98325C40358
S11314E06386050013050400EFF09FB88325040408
S11314F06386050013050400EFF09FB78325C40538
S11315006386050013050400EFF09FB68325840568
S11315106386050013050400EFF09FB5832544039B
S11315206386050013050400EFF09FB4832784014C
S1131530638607048327840213050400E7800700F9
S113154083258404638C05021305040003248101AC
S11315508320C10183244101032901018329C1009E
S1131560130101026FF0DFE883A9050013050400ED
S1131570EFF01FB0938509006FF05FF08320C10185
S11315800324810183244101032901018329C1002A
S113159013010102678000006780000003A58187B2
S10715A0678000005C
S11315A47465737400000000544855415320524933
S11315B453432D562052563332494D20626172658D
S11315C4206D6574616C2070726F636573736F72E0
S11315D40000000054686520486167756520556EF5
S11315E46976657273697479206F66204170706CD2
S11315F469656420536369656E6365730000000064
S11316044465706172746D656E74206F6620456CF8
S1131614656374726963616C20456E67696E6565A0
S113162472696E67000000004A2E452E4A2E206F10
S1131634702064656E2042726F75770025732C20C8
S113164425642C2025702C20256C750D0A000000BF
S1131654232D302B20000000686C4C006566674520
S11316644647000030313233343536373839414255
S113167443444546000000003031323334353637B4
S1131684383961626364656600000000180D000067
S1131694380D0000E40C0000E40C0000E40C00002D
S11316A4E40C0000380D0000E40C0000E40C00001D
S11316B4E40C0000E40C0000500F0000CC0D00000A
S11316C4B80E0000E40C0000E40C0000980F0000C5
S11316D4E40C0000CC0D0000E40C0000E40C000059
S10B16E4C40E000018000020F0
S11316ECA4150000AC150000D81500000416000069
S11316FC2C16000000000000000000000000000098
S113170C00000000000000000000000000000000C9
S113171C00000000000000000000000000000000B9
S113172C00000000000000000000000000000000A9
S113173C0000000000000000000000000000000099
S113174C0000000000000000000000000000000089
S10B175C000000000000000081
S10717641800002045
S9030000FC
